:020000040000FA
:020000000528D1
:040002000034003492
:080008000B286A2101213521BA
:100010005528E12107288B1310208B108B1709001E
:1000200064215330DE214530DE215430DE21203082
:10003000DE215A30DE214530DE215230DE214F30C4
:10004000DE212420E1210800152130211F19262856
:100050001E08B20080211E087D21B3002E30DE2153
:10006000192130211F1932281E08B40080211E08D2
:100070007D21B5002E30DE211D2130211F193E28A3
:100080001E08B60080211E087D21B7002E30DE211B
:10009000212130211F194A281E08B80080211E087E
:1000A0007D21B9002E30DE210800F8200130290220
:1000B0000319792802302902031972280330290212
:1000C00003196B288028CF213321E121072808005C
:1000D0000130A902080068201521E1213021972173
:1000E00088208F2868201921E1213021A52188202E
:1000F0008F2868201D21E1213021B32188208F28FD
:100100002121E1213021C12188200330A9008F283D
:100110001E08A70080211E087D21A80008000130CC
:10012000270203199D28023027020319A42803304F
:1001300027020319AB289C28B2280630A6000530F8
:10014000A5000230A4009C280230A6000130A500C2
:100150000530A4009C280830A6000630A500073012
:10016000A4009C28B328643028020318C328B828A8
:100170000A3028020318C628BD28013028020318B7
:10018000C928C2286328A800E220B328A800D720E5
:10019000B828A800CC20BD280130A6070A302602C6
:1001A0008318D328F7280A30A602D728F728013069
:1001B000A5070A3025028318DE28F7280A30A50291
:1001C000E228F7280130A4070A3024028318E9281E
:1001D000F7280A30A402ED28F7280130A3070A30D7
:1001E00023028318F428F7280A30A302F72808000E
:1001F0000030A3000030A4000030A5000030A600AD
:10020000080006212B218D213021080009212521FC
:1002100008007D219F131F1380211F139F179F111B
:100220001F119F141F147D2108009F111F129F1280
:1002300008009F151F129F1208009F111F169F1282
:1002400008009F111F129F1608007D211F1408002F
:100250007D211F1008000C130C170B178B170800BB
:100260007D211F1508001F1108003D214321492150
:100270004E21542159215E21080000308700892138
:100280000800071408003D218700383088008921C4
:1002900008003D210F308800892108003D210130F0
:1002A000880089215E2108003D21063088008921CF
:1002B00008003D2140308800892108003D21803020
:1002C00088008921412108003D21C0308800892112
:1002D000412108008021003087000030880006148A
:1002E0007D210030870000308800772108008021C0
:1002F00001178B170B167D210800831203130800CA
:1003000083160313080083120317080083160317CC
:10031000080007158D2107110800A00B8D29080082
:100320005230DE215530DE214E30DE2108005E21C4
:100330004E30DE214F30DE215230DE215430DE21BE
:100340004830DE213A30DE2108005E214530DE21D2
:100350004130DE215330DE215430DE212030DE21D9
:100360003A30DE2108005E215330DE214F30DE219D
:100370005530DE215430DE214830DE213A30DE2196
:1003800008005E215730DE214530DE215330DE216A
:100390005430DE212030DE213A30DE2108002308EF
:1003A000DC21DE212408DC21DE212508DC21DE2100
:1003B0002608DC21DE210800303E08008800892163
:0C03C0000800A00BE129A10BE1290800B6
:00000001FF
